:020000040800F2
:10000000002000203D0B0008590500085B05000892
:1000100000000000000000000000000000000000E0
:100020000000000000000000000000005D05000866
:1000300000000000000000005F05000861050008E6
:100040008D0B00088D0B00088D0B00088D0B000830
:100050008D0B00088D0B00088D0B00088D0B000820
:100060008D0B00088D0B00088D0B00088D0B000810
:100070008D0B00088D0B00088D0B00088D0B000800
:100080008D0B00088D0B0008000000008D0B000890
:100090008D0B0008410400088D0B00088D0B000833
:1000A0008D0B00088D0B00088D0B00088D0B0008D0
:1000B0008D0B0008000000008D0B00080000000000
:1000C00010B5064C2378002B07D1054B002B02D02E
:1000D000044800E000BF0123237010BD6800002029
:1000E00000000000B01A0008044B10B5002B03D02C
:1000F0000349044800E000BF10BDC04600000000F6
:100100006C000020B01A000803B471464908400092
:100110004900095E49008E4403BC70470022430831
:100120008B4274D303098B425FD3030A8B4244D3BF
:10013000030B8B4228D3030C8B420DD3FF22090201
:1001400012BA030C8B4202D31212090265D0030BC0
:100150008B4219D300E0090AC30B8B4201D3CB03B6
:10016000C01A5241830B8B4201D38B03C01A5241F8
:10017000430B8B4201D34B03C01A5241030B8B42FA
:1001800001D30B03C01A5241C30A8B4201D3CB02E5
:10019000C01A5241830A8B4201D38B02C01A5241CA
:1001A000430A8B4201D34B02C01A5241030A8B42CD
:1001B00001D30B02C01A5241CDD2C3098B4201D3E5
:1001C000CB01C01A524183098B4201D38B01C01A63
:1001D000524143098B4201D34B01C01A52410309DA
:1001E0008B4201D30B01C01A5241C3088B4201D389
:1001F000CB00C01A524183088B4201D38B00C01A36
:10020000524143088B4201D34B00C01A5241411A5C
:1002100000D20146524110467047FFE701B5002069
:1002200000F006F802BDC0460029F7D076E7704717
:100230007047C046204842698023DB021343436174
:100240001E4B1968802212050A431A601968802221
:1002500092050A431A601968802212060A431A603E
:100260001968802252040A431A6099698022520157
:1002700011439961C3698021C9010B43C361104BCC
:10028000186801431960196818200143196019683A
:1002900014380143196059680A435A605A68024386
:1002A0005A605968E022D2000A435A601A68402115
:1002B0000A431A607047C04600100240000400481C
:1002C00000380040F0B5DE4657464E464546E0B59C
:1002D0008DB00AAF0823994608220021380000F0AB
:1002E00019FD1822002104A800F014FD514B5A6991
:1002F0008021C9030A435A615A690A400392039A4A
:100300005A69802189020A435A615A690A40029255
:10031000029A5A698021C9020A435A615B690B40FB
:100320000193019B444D0126AE6202239B46AB62C2
:1003300002339A46AB624B46AB6208339846AB62D7
:100340001033AB624022AA628021A9623B4A9368C3
:1003500071398B4393609022D205D3680C398B435B
:100360003343D36013688B4313600A963E710024B5
:100370007C71BE71380000F095F9049605960694DC
:100380000794089404A80100280000F0EEF85846ED
:100390000490059606940794089404A80100280088
:1003A00000F0E3F8504604900596069407940894EC
:1003B00004A80100280000F0D8F8484604900596EB
:1003C00006940794089404A80100280000F0CDF8D2
:1003D00040460490059606940794089404A80100EA
:1003E000280000F0C2F82023049305960694079491
:1003F000089404AB1900280000F0B7F840220492DA
:10040000059606940794089404AB1900280000F0A0
:10041000ACF880210491059606940794089404A9E9
:10042000280000F0A2F80DB0F0BCBB46B246A946C9
:10043000A046F0BD0010024000040048000001404A
:1004400010B5024800F019FA10BDC0468400002023
:1004500072B6FEE710B50C480C4B03600C4B4360C2
:10046000002383600B4AC260036143618033836170
:1004700000F002FB002804D1074B802292031A608F
:1004800010BDFFF7E5FFC046840000200044014096
:100490003F1F0000E703000000E100E010B51A4A2A
:1004A000136801218B431360174B1B68DB07FBD4D8
:1004B000164A136801210B431360144B1B689B07FA
:1004C000FBD5124B1A68F8218A4378390A431A601F
:1004D0005A6870318A435A605A680D490A405A6016
:1004E0005A6803218A435A60084B5B680C221A42FF
:1004F000FAD1084800F01CFB032000F08FF8002818
:1005000000D110BDFFF7A4FF002002400010024000
:10051000FFF8FFFF00127A0010B500F0A7F8FFF710
:10052000BDFFFFF787FEFFF7CDFEFFF793FF0748FC
:1005300000F068F9002406E0054B1A5D054821002B
:1005400000F0D8FB0134052CF6D9FEE7840000202A
:10055000D41A0008C81A0008FEE7FEE77047704783
:1005600010B500F093F810BD7047F0B5002216E00A
:10057000C6682B006B435F00FF18FC43A446BE43D4
:100580000F695F433E43C6604C68022C27D0046865
:1005900065462C404D686B432343036001320C6871
:1005A0002300D34037D00123934025001D401C4237
:1005B000F4D04B68013B012BDAD883682C006C43E4
:1005C00066003619B3438E687443234383600C6816
:1005D0004368A343CE68744323434360C8E7FF2DB9
:1005E0000BD8066A1C006C4365432C01641BA643B0
:1005F0004C69654335430562C9E7466A2D0A2C00FC
:100600006C436C4365432C01641BA6434C696543F2
:1006100035434562BBE70020F0BD000010B5040083
:100620000F4B1978FA208000FFF778FD01000D4B81
:100630001868FFF773FD00F0C9F800280DD1032CEE
:1006400001D901200AE0013000222100404200F0DF
:100650008DF8054B1C60002000E0012010BDC04655
:1006600004000020000000200800002010B5064A09
:10067000136810210B4313600320FFF7CFFF00F036
:1006800029FA002010BDC04600200240034A11682C
:10069000034B1B785B1813607047C046CC000020EA
:1006A0000400002010B503000079002850D01A681B
:1006B000002A57D05879012818D0022820D00028C5
:1006C0000BD001209A79002A4BD0022A2CD0032A81
:1006D00034D0012A1ED0012043E023494C689443C2
:1006E0004C600A681C6822430A60EBE71E490868F0
:1006F000904308604A68186802434A600020E1E7B6
:100700001949086802430A604A68186802434A6047
:100710000020D7E7144AD1681C68A143D1601B6848
:1007200091680B4393601CE00F4A91681C68A143D9
:1007300091601B68D1680B43D36012E00A4A91684C
:100740001C68214391601B68D1680B43D36008E0AB
:10075000054A11681C68A1431160196853688B43EE
:10076000536010BD0020FCE70004014070B5002874
:1007700011DB8308134EC0339B009D590324204096
:10078000C000FF2214008440A54389010A40824032
:100790002A439A5170BD0F230340083B9B08063340
:1007A0009B00094A944663445C6803221040C000E1
:1007B000FC3215008540AC4389010A408240224347
:1007C0005A60E7E700E100E000ED00E00138802337
:1007D0005B0498420FD2094A50600948036A1B0221
:1007E0001B0AC02109060B430362002393600733F1
:1007F0001360002070470120FCE7C04610E000E0D5
:1008000000ED00E03D23C35C012B26D13C330222E6
:10081000C2540268D36801210B43D3600368114AB4
:1008200093420FD08022D20593420BD00E4A9342BE
:1008300008D00E4A934205D01A6801210A431A6073
:1008400000200BE0996807220A40062A07D01A68A0
:1008500001210A431A60002000E0012070470020B7
:10086000FCE7C046002C014000040040004001406D
:100870007047704770477047704710B504000368B1
:100880001A6992070FD5DA6892070CD503225242F3
:100890001A610123037703689B699B0763D0FFF705
:1008A000E9FF0023237723681A69520712D5DA6813
:1008B00052070FD5052252421A610223237723687B
:1008C0009A69C0239B001A4253D02000FFF7D2FF41
:1008D0000023237723681A69120710D5DA681207F4
:1008E0000DD5092252421A61042323772368DB695C
:1008F0009B0745D02000FFF7BDFF00232377236827
:100900001A69D20612D5DA68D2060FD511225242E0
:100910001A61082323772368DA69C0239B001A42EF
:1009200035D02000FFF7A6FF0023237723681A693C
:10093000D20702D5DA68D20730D423681A691206C2
:1009400002D5DA68120630D423681A69520602D535
:10095000DA68520630D423681A69920602D5DA683A
:10096000920630D410BDFFF784FF2000FFF783FF0D
:1009700097E72000FFF77DFF2000FFF77CFFA7E748
:100980002000FFF776FF2000FFF775FFB5E7200096
:10099000FFF76FFF2000FFF76EFFC5E7022252420C
:1009A0001A612000FFF764FFC7E7812252421A61F3
:1009B000200000F08EF8C7E7412252421A61200061
:1009C000FFF75AFFC7E7212252421A61200000F0C8
:1009D0007FF8C7E70368214A904206D08022D205FB
:1009E000904202D01E4A904203D1702293434A683B
:1009F00013431A4A904212D08022D20590420ED060
:100A0000174A90420BD0174A904208D0164A90429B
:100A100005D0164A904202D0154A904203D1154A99
:100A20001340CA681343802293434A691343036007
:100A30008B68C3620B688362084B984208D00A4BEC
:100A4000984205D0094B984202D0094B984201D1F7
:100A50000B690363012343617047C046002C0140CA
:100A600000040040002000400040014000440140DC
:100A700000480140FFFCFFFF70B5041E26D03D2357
:100A8000C35C002B1CD03D2502236355210001C906
:100A9000FFF7A0FF01234622A354083AA3540132D2
:100AA000A3540132A3540132A3540132A35401329E
:100AB000A3540132A3540132A3546355002070BDE6
:100AC0003C330022C25400F01DF8DCE70120F6E7B9
:100AD0007047704782B00A4B9969012211439961AE
:100AE00099690A400092009ADA69802149050A430F
:100AF000DA61DB690B400193019B02B07047C0468D
:100B00000010024082B00268074B9A4201D002B046
:100B10007047064A91698020800201439161936980
:100B200003400193019BF2E70044014000100240A2
:100B3000014B18607047C046000000200D488546F4
:100B4000FFF712FD0C480D490D4A002302E0D4586E
:100B5000C4500433C4188C42F9D30A4A0A4C002307
:100B600001E013600432A242FBD300F0DBF8FFF790
:100B7000D3FCFEE7002000200000002068000020D9
:100B8000181B00086800002020020020FEE700007B
:100B9000002310B5040003604360836081814366D5
:100BA0001900C28103614361836108225C3000F057
:100BB000B1F8054B24626362044BA362044BE36209
:100BC000044B236310BDC046CD150008F515000881
:100BD0002D1600085916000810B5034A03490448A9
:100BE00000F06CF810BDC0460C0000205515000840
:100BF0001800002041680B4B10B50400994201D049
:100C000000F0A8FCA168084B994202D0200000F037
:100C1000A1FCE168054B994202D0200000F09AFC4B
:100C200010BDC046D000002038010020A0010020E7
:100C300010B5094B094A04211A6009480022FFF740
:100C4000A7FF012209210748FFF7A2FF0222122174
:100C50000548FFF79DFF10BD08020020D90B0008D2
:100C6000D000002038010020A001002010B502486B
:100C700000F07CF810BDC0460D02002010B50248FF
:100C800000F075F810BDC0460D02002010B504003C
:100C9000FFF7ECFF236A002B02D0FFF7EFFF10BD38
:100CA000044B2362044B1B68002BF6D1FFF7C0FFF7
:100CB000F3E7C046F50B000808020020F7B5140062
:100CC000002600900191A5686768013F04D524685B
:100CD000002CF8D13000FEBDAB89012B08D90E22C3
:100CE000AB5E013304D029000098019B984706436E
:100CF0006835EAE70FB407B5054904AB086804CBCB
:100D00008168019300F05CF803B008BC04B0184798
:100D10006400002003008218934200D170471970CC
:100D20000133F9E770B500260C4C0D4D641BA4107F
:100D3000A64209D1002600F0BBFE0A4C0A4D641BF6
:100D4000A410A64205D170BDB300EB5898470136F8
:100D5000EEE7B300EB5898470136F2E7101B0008A6
:100D6000101B0008141B0008101B00087047704778
:100D7000936810B5013B9360002B04DA9469A34299
:100D800007DB0A2905D01368581C10601970080089
:100D900010BD00F067FC0100F9E7F8B506000F0090
:100DA0001400D518AC4201D1002007E021783A00A8
:100DB0003000FFF7DDFF0134431CF3D1F8BD000024
:100DC000F0B5A1B00F0015001E000390002804D05C
:100DD000036A002B01D1FFF759FF7B6EDB0705D4B7
:100DE000BB899B0502D4B86DFFF7C0FFBB891B0709
:100DF00002D53B69002B13D13900039800F074FC35
:100E000000280DD07B6EDB0703D50120404221B0C6
:100E1000F0BDBB899B05F8D4B86DFFF7A8FFF4E7D8
:100E2000002308AC6361203363761033A376079602
:100E30002E003378002B01D0252B48D1731B05934E
:100E4000AE420BD02A0039000398FFF7A6FF01300D
:100E500000D1AFE06369059A9B1863613378002B7A
:100E600000D1A7E0012200235242626004A954325B
:100E70005218751C2360E360A3601370A365594B7F
:100E8000052218002978059300F07CFD6E1C0028CF
:100E90001FD12268D30604D5532304A95B1820214F
:100EA0001970130704D5532304A95B182B2119705B
:100EB0002B782A2B16D02E0000210A20E3683278E6
:100EC000751C303A092A4ED9002911D117E0013694
:100ED000AFE7059B2268C01A012383401343350006
:100EE0002360CCE7079B191D1B680791002B01DBD2
:100EF0000B9304E05B42E3600223134323603378E7
:100F00002E2B0AD173782A2B35D1079B02361A1D56
:100F10001B680792002B2BDB0993334D032228001B
:100F2000317800F02FFD002806D04023401B83407D
:100F30002268013613432360317806222B48751C42
:100F4000217600F01FFD002843D0294B002B25D12E
:100F50000722079B07339343083307936369049A77
:100F60009B18636164E743432E0001219B18A6E7A9
:100F700001235B42D0E700230A201A000136636098
:100F80003178751C3039092903D9002BC5D0099255
:100F9000C3E742432E0001235218F1E707AA00924B
:100FA00021003A00134B039800E000BF0490049B1B
:100FB0000133D3D17B6EDB0705D4BB899B0502D4FB
:100FC000B86DFFF7D4FEBB895B0600D51DE70D9811
:100FD0001DE707AA009221003A00064B039800F093
:100FE0001FF9E3E7DA1A0008E01A0008E41A00081B
:100FF000000000009B0D000870B50F4E0D00316819
:101000000400002902D100F097FC30602900200084
:1010100000F092FC431C0AD00323C51C9D43A84248
:1010200007D0291A200000F087FC013001D10125EA
:101030006D42280070BDC04614020020F7B503229F
:10104000CB1C9343083306001F000C2B38D20C270F
:10105000B94237D8300000F0A9FA384B00931B682A
:101060001C00002C33D139003000FFF7C5FF04000D
:10107000431C5ED1009B1C682500002D4ED1002C26
:1010800051D023682900E3183000019300F054FC8C
:10109000019B834247D123683000FF1A3900FFF7D4
:1010A000ABFF01303FD02368DB192360009B1B6836
:1010B000002B40D05A68A24233D100225A6014E07B
:1010C000002BC5DA0C23002533602800FEBD216803
:1010D000C91B20D40B2918D9E2192760A34212D1C9
:1010E000009B1A606368116053603000250000F0B7
:1010F00065FA07220B35231D9543EA1A9D42E4D079
:101100005B1BA350E1E75A60ECE76268A342D5D1CC
:10111000009B1A60E9E723006468A2E72C006D6871
:10112000ABE71300C4E70C233000336000F046FA4D
:10113000CBE72760D9E75B60FFDEC04610020020E6
:10114000F7B5160001938A680B690C000090934272
:1011500000DA13002200336043321278002A01D0F3
:101160000133336023689B0602D533680233336052
:101170002268062315001D401A4227D0230043335E
:101180001B785A1E93412268920630D4220001999E
:101190000098089D4332A847013025D006222368D5
:1011A00000251340042B05D13368E568ED1AEB43A5
:1011B000DB171D40A3682269934201DD9B1AED18DD
:1011C0000026B54220D1002010E00135E3683268E6
:1011D0009B1AAB42D2DD2200012301990098089F9F
:1011E0001932B8470130F0D101204042FEBD302015
:1011F000E1184331087021005A1C45310978A218C2
:10120000433202331170C1E7220001230199009893
:10121000089F1A32B8470130E6D00136D1E7000006
:10122000F0B58BB006920A00433207930590049202
:101230000A7E0C00109B782A09D8622A0BD8002A53
:1012400000D1BEE07C490391582A00D193E02600EA
:101250004236327022E0100063381528F7D8FEF7C6
:1012600053FF16001F00F6FFF6FFF6FFF6FF1F0004
:10127000F6FFF6FFF6FFF6FFA30036008300F6FF49
:10128000F6FFB400F6FF3600F6FFF6FF87002600F3
:101290001A684236111D1960136833700123A2E0E9
:1012A00018680968021D0D060BD505681A60002D27
:1012B00003DA2D23049A6D4213705F4B0A270393C0
:1012C0001BE005681A604906F1D52DB2EFE70D68FD
:1012D0001968081D18602E0601D50D6803E06D061B
:1012E000FBD50D68ADB2544B082703936F2A00D08D
:1012F00002372300002243331A706368A360002B77
:1013000003DB042122688A432260002D02D1049E5F
:10131000002B0CD0049E28003900FEF785FF039BAC
:10132000013E5B5C33702B0005009F42F3D9082F10
:1013300009D12368DB0706D5626823699A4202DC7B
:101340003023013E3370049B9B1B2361079B2100CC
:1013500000930598069B09AAFFF7F2FE013047D1DA
:10136000012040420BB0F0BD202209680A432260F0
:10137000782232490391210045310A7019682268A8
:1013800020C9100602D4500600D5ADB21960D307AB
:1013900002D52023134323601027002DA9D120223A
:1013A000236893432360A4E71A680D68101D4969F8
:1013B000186013682E0601D5196002E06D06FBD592
:1013C00019800023049E2361C0E71A68111D19606B
:1013D000166800213000626800F0D4FA002801D0BD
:1013E000801B6060636823610023049A1370ADE77B
:1013F0003200236906990598079DA8470130AFD0B0
:1014000023689B0715D4099BE0689842AADA180064
:10141000A8E72200012306990598079E1932B047D4
:1014200001309DD00135E368099A9B1AAB42F0DC8C
:10143000E9E70025F7E7C046EB1A0008FC1A0008A8
:10144000F7B58B8905000C001A075CD44A68002A9E
:1014500004DC0A6C002A01DC0020FEBDE76A002FD4
:10146000FAD0002280202E682A601A004001216AEA
:101470000240034234D0606DA3895B0706D56368E0
:10148000C01A636B002B01D0236CC01A020000232A
:101490002800E76A216AB847A289431C06D1296857
:1014A0001D292CD82A4B0B41DB0728D4002363606D
:1014B00023692360D20405D5431C02D12B68002B7D
:1014C00000D16065616B2E600029C5D023004433D4
:1014D000994202D0280000F061FA00206063BCE766
:1014E00001232800B847431CC6D12B68002BC3D06A
:1014F0001D2B01D0162B01D12E60ADE7A289402310
:101500001343A381A9E70E69002EA5D00F680E60D2
:10151000BA1B019200229B0700D14A69A260019B7D
:10152000002B99DDA36A32001F002800019B216A6D
:10153000B847002806DC40230120A289404213431B
:10154000A3818AE7019B36181B1A0193E7E7C0467F
:10155000FEFFBFDF0B6970B505000C00002B02D148
:101560000025280070BD002804D0036A002B01D19B
:10157000FFF78CFB0C22A35E002BF1D0626ED2072A
:1015800004D49B0502D4A06DFFF7F0FB28002100D6
:10159000FFF756FF636E0500DB07E2D4A3899B05C6
:1015A000DFD4A06DFFF7E3FBDBE7000010B50248D6
:1015B000FFF7DCFB10BDC0460C02002010B502484E
:1015C000FFF7D5FB10BDC0460C02002070B50C0023
:1015D0000E25495F00F09CF9002803DB636D1B18A2
:1015E000636570BDA389024A1340A381F9E7C04631
:1015F000FFEFFFFFF8B51F008B8905000C001600F8
:10160000DB0505D50E23C95E0022022300F06CF92C
:10161000A389054A28001340A38132000E23E15E0E
:101620003B0000F09BF9F8BDFFEFFFFF70B50C0029
:101630000E25495F00F058F9A389421C03D1054AE1
:101640001340A38170BD802252011343A3816065C2
:10165000F8E7C046FFEFFFFF10B50E23C95E00F0AC
:101660000DF910BDF8B506000D001400002804D0D7
:10167000036A002B01D1FFF709FBA369A360A389CB
:101680001B0728D52369002B25D023692068EFB2DA
:10169000C01A6369EDB2834205DC21003000FFF718
:1016A00059FF00281DD1A3680130013BA3602368C6
:1016B0005A1C22601F706369834204D0A389DB0730
:1016C00007D50A2D05D121003000FFF743FF002880
:1016D00007D12800F8BD2100300000F005F80028EF
:1016E000D3D001256D42F4E7304B70B50500186882
:1016F0000C00002804D0036A002B01D1FFF7C6FAC2
:101700000C23E25E93B2110723D4D90607D4092330
:1017100001202B6037331343A381404270BD5B0728
:1017200013D5616B002908D023004433994202D0BD
:10173000280000F033F9002363632422A389934334
:10174000A38100236360236923600823A2891343D4
:10175000A3812369002B0BD1A0218022A3898900BA
:1017600092000B40934203D02100280000F048F87B
:101770000C22A35E01201A0099B2024003420FD04E
:101780000022A26062695242A26100202269824264
:10179000C4D10906C2D540221343A3810138BDE755
:1017A000880700D46269A260EFE7C04664000020A9
:1017B00070B50E001D000E23C95E140096B00029FE
:1017C0000CDAB2898023110019401A4213D000218B
:1017D000403B00202960236016B070BD6A4600F0CF
:1017E0005FF80028EDDBF02301991B021940034B41
:1017F000C9184B4259418023DB00EAE700E0FFFFB4
:10180000F7B502268B8905000C00334206D0230071
:1018100047332360236101236361F7BD6A4601AB4F
:10182000FFF7C6FF009907002800FFF707FC002814
:1018300008D10C22A35E9A05EFD4032293431E43E2
:10184000A681E4E78023A28920601343A381009B43
:1018500020616361019B002B0CD028000E23E15E08
:1018600000F030F8002805D00323A2899A43023BF8
:101870001343A381A3893B43A381CEE7002370B523
:10188000064D040008002B6000F0D2F8431C03D181
:101890002B68002B00D0236070BDC04618020020CA
:1018A000002370B5064D0400080011002B6000F005
:1018B000C7F8431C03D12B68002B00D0236070BDF8
:1018C00018020020002370B5064D040008002B60AC
:1018D00000F0BEF8431C03D12B68002B00D023601E
:1018E00070BDC0461802002070B504000800110049
:1018F0001A000023054D2B6000F0B2F8431C03D101
:101900002B68002B00D0236070BDC0461802002059
:1019100070B50400080011001A000023054D2B606B
:1019200000F0A6F8431C03D12B68002B00D02360E5
:1019300070BDC04618020020002370B5064D04009B
:1019400008002B6000F09CF8431C03D12B68002B8F
:1019500000D0236070BDC0461802002070B504009E
:10196000080011001A000023054D2B6000F098F8C4
:10197000431C03D12B68002B00D0236070BDC046F0
:1019800018020020C9B28218904201D1002070478D
:1019900003788B42FBD00130F6E7000070B50500FC
:1019A000002910D00C1F2368002B00DAE41828004F
:1019B000FFF7FCFD1D4A1368002B05D1636014601E
:1019C0002800FFF7FBFD70BDA34208D9206821184D
:1019D0008B42F3D119685B6809182160EEE71A00A1
:1019E0005B68002B01D0A342F9D911685018A042BE
:1019F0000BD120680918501811608342E0D1186893
:101A00005B68411811605360DAE7A04202D90C23E9
:101A10002B60D5E7206821188B4203D119685B68D9
:101A20000918216063605460CAE7C04610020020B4
:101A300058220120014B40421A60704718020020D2
:101A400058220120014B40421A60704718020020C2
:101A50005822024B00201A607047C046180200202E
:101A600058220120014B40421A60704718020020A2
:101A700058220120014B40421A6070471802002092
:101A8000054A03001168002901D10449116010685A
:101A9000C31813607047C0461C02002020020020BB
:101AA00058220120014B40421A6070471802002062
:101AB000F8B5C046F8BC08BC9E467047F8B5C046AD
:081AC000F8BC08BC9E4670470B
:101AC8004279746520257A753A200A00AA55CC33E4
:101AD800F00F232D302B2000686C4C00656667459D
:101AE800464700303132333435363738394142438E
:101AF800444546003031323334353637383961623F
:081B0800636465660000000043
:041B1000E9000008E0
:041B1400C100000804
:101B180000127A000100000004000000000000002C
:101B280003000000D000002000000000D0000020CA
:101B380038010020A0010020000000000000000083
:101B4800000000000000000000000000000000008D
:101B5800000000000000000000000000000000007D
:101B6800000000000000000000000000000000006D
:081B780000000000180000202D
:0400000508000B3DA7
:00000001FF
