:020000040800F2
:1000000000200020D10B0008590600085B060008FC
:1000100000000000000000000000000000000000E0
:100020000000000000000000000000005D06000865
:1000300000000000000000005F06000861060008E4
:10004000210C0008210C0008210C0008210C0008DC
:10005000210C0008210C0008210C0008210C0008CC
:10006000210C0008210C0008210C0008210C0008BC
:10007000210C0008210C0008210C0008210C0008AC
:10008000210C0008210C000800000000210C0008D1
:10009000210C000869050008210C0008210C00084B
:1000A000210C0008210C0008210C0008210C00087C
:1000B000210C000800000000210C000800000000D6
:1000C0000448054B10B5834203D0044B002B00D0ED
:1000D000984710BD0C0000200C000020000000001C
:1000E00006480749091A8B10C90FC91810B54910DD
:1000F00003D0044B002B00D0984710BD0C0000200B
:100100000C0000200000000010B5074C2378002BE5
:1001100009D1FFF7D5FF054B002B02D0044800E0C2
:1001200000BF0123237010BD0C0000200000000060
:10013000240C0008054B10B5002B03D004490548DA
:1001400000E000BFFFF7CCFF10BDC046000000007C
:1001500010000020240C000870B50C4D0C4E761BCE
:10016000B61005D0002408CD01349847A642FAD134
:1001700000F058FD074D084E761BB61005D0002440
:1001800008CD01349847A642FAD170BD3C0C000856
:100190003C0C00083C0C0008400C0008F0B50500C1
:1001A000830749D0541E002A45D003000326CAB253
:1001B00002E00135013C3ED301332A703342F8D1CD
:1001C000032C30D9FF220A40150215432A04154397
:1001D0000F2C34D92700103F3F093E01B4461E00C2
:1001E0001A0010366644156055609560D56010326F
:1001F000B242F8D101373F01DB190F270C2227400B
:1002000022403C00002A0ED03E1FB608B400A4468F
:100210001A001C1D644420C2A242FCD103240136F2
:10022000B6009B193C40002C05D0C9B21C191970AE
:1002300001339C42FBD1F0BD03001400C0E727004E
:10024000E2E7C046002243088B4274D303098B4285
:100250005FD3030A8B4244D3030B8B4228D3030C96
:100260008B420DD3FF22090212BA030C8B4202D338
:100270001212090265D0030B8B4219D300E0090A60
:10028000C30B8B4201D3CB03C01A5241830B8B4269
:1002900001D38B03C01A5241430B8B4201D34B0352
:1002A000C01A5241030B8B4201D30B03C01A5241B7
:1002B000C30A8B4201D3CB02C01A5241830A8B423C
:1002C00001D38B02C01A5241430A8B4201D34B0225
:1002D000C01A5241030A8B4201D30B02C01A524189
:1002E000CDD2C3098B4201D3CB01C01A524183093D
:1002F0008B4201D38B01C01A524143098B4201D377
:100300004B01C01A524103098B4201D30B01C01AA1
:100310005241C3088B4201D3CB00C01A524183081B
:100320008B4201D38B00C01A524143088B4201D348
:100330004B00C01A5241411A00D2014652411046A8
:100340007047FFE701B5002000F006F802BDC04687
:100350000029F7D076E770477047C04620484269C9
:100360008023DB02134343611E4B19688022120570
:100370000A431A601968802292050A431A601968B4
:10038000802212060A431A601968802252040A4326
:100390001A6099698022520111439961C3698021D1
:1003A000C9010B43C361104B1868014319601968F8
:1003B00018200143196019681438014319605968FD
:1003C0000A435A605A6802435A605968E022D200D0
:1003D0000A435A601A6840210A431A607047C046AF
:1003E000001002400004004800380040F0B5DE462E
:1003F00057464E464546E0B58DB00AAF08239946AC
:10040000082200213800FFF7C9FE1822002104A8A5
:10041000FFF7C4FE514B59698020C0030143596165
:100420005A6902400392039A59698020800201436D
:1004300059615A6902400292029A5A698021C9029E
:100440000A435A615B690B400193019B444D0126AD
:10045000AE6202239B46AB6202339A46AB624B46C6
:10046000AB6208339846AB621033AB624022AA629B
:100470008021A9623B4A936871398B439360902233
:10048000D205D3680C398B433343D36013688B4355
:1004900013600A963E7100247C71BE71380000F032
:1004A00081F90496059606940794089404A801001F
:1004B000280000F0DAF85846049005960694079450
:1004C000089404A80100280000F0CFF850460490DA
:1004D000059606940794089404A80100280000F0EB
:1004E000C4F848460490059606940794089404A816
:1004F0000100280000F0B9F84046049005960694E3
:100500000794089404A80100280000F0AEF8202306
:100510000493059606940794089404AB19002800E8
:1005200000F0A3F8402204920596069407940894DC
:1005300004AB1900280000F098F88021049105967A
:1005400006940794089404A9280000F08EF80DB0D2
:10055000F0BCBB46B246A946A046F0BD0010024022
:10056000000400480000014010B5024800F0CFF937
:1005700010BDC0462800002072B6FEE710B50C483A
:100580000C4B03600C4B4360002383600B4AC2603A
:10059000036143618033836100F0B8FA002804D11D
:1005A000074B802292031A6010BDFFF7E5FFC0469B
:1005B00028000020004401403F1F0000E703000026
:1005C00000E100E010B51A4A136801218B43136063
:1005D000174B1B68DB07FBD4164A136801210B433A
:1005E0001360144B1B689B07FBD5124B1A68F8214C
:1005F0008A4378390A431A605A6870318A435A60CC
:100600005A680D490A405A605A6803218A435A6061
:10061000084B5B680C221A42FAD1084800F0D2FA63
:10062000032000F07BF8002800D110BDFFF7A4FFE5
:100630000020024000100240FFF8FFFF00127A0085
:1006400010B500F093F8FFF7BDFFFFF787FEFFF747
:10065000CDFEFFF793FFFEE7FEE7FEE7704770472A
:1006600010B500F093F810BD7047F0B5002216E009
:10067000C6682B006B435F00FF18FC43A446BE43D3
:100680000F695F433E43C6604C68022C27D0046864
:1006900065462C404D686B432343036001320C6870
:1006A0002300D34037D00123934025001D401C4236
:1006B000F4D04B68013B012BDAD883682C006C43E3
:1006C00066003619B3438E687443234383600C6815
:1006D0004368A343CE68744323434360C8E7FF2DB8
:1006E0000BD8066A1C006C4365432C01641BA643AF
:1006F0004C69654335430562C9E7466A2D0A2C00FB
:100700006C436C4365432C01641BA6434C696543F1
:1007100035434562BBE70020F0BD000010B5040082
:100720000F4B1978FA208000FFF78CFD01000D4B6C
:100730001868FFF787FD00F0C9F800280DD1032CD9
:1007400001D901200AE0013000222100404200F0DE
:100750008DF8054B1C60002000E0012010BDC04654
:1007600004000020000000200800002010B5064A08
:10077000136810210B4313600320FFF7CFFF00F035
:10078000F3F9002010BDC04600200240034A116862
:10079000034B1B785B1813607047C0467000002045
:1007A0000400002010B503000079002850D01A681A
:1007B000002A57D05879012818D0022820D00028C4
:1007C0000BD001209A79002A4BD0022A2CD0032A80
:1007D00034D0012A1ED0012043E023494C689443C1
:1007E0004C600A681C6822430A60EBE71E490868EF
:1007F000904308604A68186802434A600020E1E7B5
:100800001949086802430A604A68186802434A6046
:100810000020D7E7144AD1681C68A143D1601B6847
:1008200091680B4393601CE00F4A91681C68A143D8
:1008300091601B68D1680B43D36012E00A4A91684B
:100840001C68214391601B68D1680B43D36008E0AA
:10085000054A11681C68A1431160196853688B43ED
:10086000536010BD0020FCE70004014070B5002873
:1008700011DB8308134EC0339B009D590324204095
:10088000C000FF2214008440A54389010A40824031
:100890002A439A5170BD0F230340083B9B0806333F
:1008A0009B00094A944663445C6803221040C000E0
:1008B000FC3215008540AC4389010A408240224346
:1008C0005A60E7E700E100E000ED00E00138802336
:1008D0005B0498420FD2094A50600948036A1B0220
:1008E0001B0AC02109060B430362002393600733F0
:1008F0001360002070470120FCE7C04610E000E0D4
:1009000000ED00E07047704770477047704710B5C2
:10091000040003681A6992070FD5DA6892070CD5AC
:10092000032252421A610123037703689B699B07E4
:1009300063D0FFF7E9FF0023237723681A69520782
:1009400012D5DA6852070FD5052252421A610223E6
:10095000237723689A69C0239B001A4253D0200052
:10096000FFF7D2FF0023237723681A69120710D5F7
:10097000DA6812070DD5092252421A61042323773F
:100980002368DB699B0745D02000FFF7BDFF0023EC
:10099000237723681A69D20612D5DA68D2060FD5F2
:1009A000112252421A61082323772368DA69C0238F
:1009B0009B001A4235D02000FFF7A6FF00232377C3
:1009C00023681A69D20702D5DA68D20730D42368BF
:1009D0001A69120602D5DA68120630D423681A6939
:1009E000520602D5DA68520630D423681A69920694
:1009F00002D5DA68920630D410BDFFF784FF2000DC
:100A0000FFF783FF97E72000FFF77DFF2000FFF748
:100A10007CFFA7E72000FFF776FF2000FFF775FFB8
:100A2000B5E72000FFF76FFF2000FFF76EFFC5E777
:100A3000022252421A612000FFF764FFC7E78122B9
:100A400052421A61200000F08EF8C7E7412252425C
:100A50001A612000FFF75AFFC7E7212252421A61AC
:100A6000200000F07FF8C7E70368214A904206D0D3
:100A70008022D205904202D01E4A904203D17022B9
:100A800093434A6813431A4A904212D08022D205F7
:100A900090420ED0174A90420BD0174A904208D08D
:100AA000164A904205D0164A904202D0154A90420A
:100AB00003D1154A1340CA681343802293434A69FD
:100AC000134303608B68C3620B688362084B9842D0
:100AD00008D00A4B984205D0094B984202D0094BE6
:100AE000984201D10B690363012343617047C046FB
:100AF000002C014000040040002000400040014064
:100B00000044014000480140FFFCFFFF70B5041E97
:100B100026D03D23C35C002B1CD03D25022363550A
:100B2000210001C9FFF7A0FF01234622A354083A80
:100B3000A3540132A3540132A3540132A35401320D
:100B4000A3540132A3540132A3540132A354635578
:100B5000002070BD3C330022C25400F01DF8DCE7D9
:100B60000120F6E77047704782B00A4B996901226D
:100B70001143996199690A400092009ADA698021CB
:100B800049050A43DA61DB690B400193019B02B01E
:100B90007047C0460010024082B00268074B9A427C
:100BA00001D002B07047064A91698020800201435B
:100BB0009161936903400193019BF2E70044014076
:100BC00000100240014B18607047C0460000002032
:100BD0000D488546FFF748FD0C480D490D4A002396
:100BE00002E0D458C4500433C4188C42F9D30A4AE2
:100BF0000A4C002301E013600432A242FBD3FFF74A
:100C0000ABFAFFF71DFDFEE70020002000000020EA
:100C10000C000020440C00080C0000207400002090
:100C2000FEE70000F8B5C046F8BC08BC9E46704719
:0C0C3000F8B5C046F8BC08BC9E467047F2
:040C3C003501000876
:040C4000090100089E
:0C0C440000127A00010000000400000013
:0400000508000BD113
:00000001FF
