:020000040800F2
:1000000000200020690D0008450700084707000888
:1000100000000000000000000000000000000000E0
:100020000000000000000000000000004907000878
:1000300000000000000000004B0700084D0700080A
:10004000B90D0008B90D0008B90D0008B90D000878
:10005000B90D0008B90D0008B90D0008B90D000868
:10006000B90D0008B90D0008B90D0008B90D000858
:10007000B90D0008B90D0008B90D0008B90D000848
:10008000B90D0008B90D000800000000B90D000806
:10009000B90D000889050008B90D0008B90D000860
:1000A000B90D0008B90D0008B90D0008B90D000818
:1000B000B90D000800000000B90D000800000000A4
:1000C00010B5064C2378002B07D1054B002B02D02E
:1000D000044800E000BF0123237010BD1000002081
:1000E00000000000140E0008044B10B5002B03D0D4
:1000F0000349044800E000BF10BDC04600000000F6
:1001000014000020140E0008002243088B4274D310
:1001100003098B425FD3030A8B4244D3030B8B4208
:1001200028D3030C8B420DD3FF22090212BA030C11
:100130008B4202D31212090265D0030B8B4219D3F2
:1001400000E0090AC30B8B4201D3CB03C01A524112
:10015000830B8B4201D38B03C01A5241430B8B425A
:1001600001D34B03C01A5241030B8B4201D30B0343
:10017000C01A5241C30A8B4201D3CB02C01A52416A
:10018000830A8B4201D38B02C01A5241430A8B422D
:1001900001D34B02C01A5241030A8B4201D30B0216
:1001A000C01A5241CDD2C3098B4201D3CB01C01A30
:1001B000524183098B4201D38B01C01A524143093A
:1001C0008B4201D34B01C01A524103098B4201D328
:1001D0000B01C01A5241C3088B4201D3CB00C01A95
:1001E000524183088B4201D38B00C01A524143080D
:1001F0008B4201D34B00C01A5241411A00D2014632
:10020000524110467047FFE701B5002000F006F8A4
:1002100002BDC0460029F7D076E770477047C04658
:10022000204842698023DB02134343611E4B196857
:10023000802212050A431A601968802292050A4337
:100240001A601968802212060A431A60196880220F
:1002500052040A431A60996980225201114399613C
:10026000C3698021C9010B43C361104B1868014366
:10027000196019681820014319601968143801437E
:10028000196059680A435A605A6802435A605968AB
:10029000E022D2000A435A601A6840210A431A60D9
:1002A0007047C0460010024000040048003800407B
:1002B00082B00300002201924000C01804E0C04652
:1002C000C046019B01330193019B8342F7D302B0E7
:1002D0007047000070B505000C00274A9169802323
:1002E0005B050B4393610120FFF7E2FF234B0622DE
:1002F0001A70234B9B68DB07FBD5214BDB681E4E36
:10030000B26980235B011343B3611E48FFF7D0FF3E
:10031000B26980235B051343B3610120FFF7C8FF77
:10032000164B02221A70164B9B68DB07FBD5144B49
:10033000DB682B0A114A1370114B9B68DB07FBD556
:100340000F4BDB680D4B1D700D4B9B68DB07FBD51E
:100350000B4BDB68094B1C70094B9B68DB07FBD51B
:10036000074BDB68044A916980235B010B4393616F
:100370000448FFF79DFF70BD000400480C380040A2
:10038000003800408813000010B504001B4A916932
:1003900080235B050B4393610120FFF789FF184B16
:1003A00003221A70174B9B68DB07FBD5154BDB68E4
:1003B000230A134A1370134B9B68DB07FBD5114BC1
:1003C000DB680F4B1C700F4B9B68DB07FBD50D4B9D
:1003D000DB680B4B42221A700A4B9B68DB07FBD58C
:1003E000084BDC68E4B2054A916980235B010B434A
:1003F00093610548FFF75CFF200010BD0004004832
:100400000C3800400038004088130000F0B5DE468C
:1004100057464E464546E0B58DB00AAF082399468B
:1004200008220021380000F0C8FC1822002104A88E
:1004300000F0C3FC514B5A698021C9030A435A6139
:100440005A690A400392039A5A69802189020A4331
:100450005A615A690A400292029A5A698021C90275
:100460000A435A615B690B400193019B444D01268D
:10047000AE6202239B46AB6202339A46AB624B46A6
:10048000AB6208339846AB621033AB624022AA627B
:100490008021A9623B4A936871398B439360902213
:1004A000D205D3680C398B433343D36013688B4335
:1004B00013600A963E7100247C71BE71380000F012
:1004C000FFF90496059606940794089404A8010081
:1004D000280000F040F958460490059606940794C9
:1004E000089404A80100280000F035F95046049053
:1004F000059606940794089404A80100280000F0CB
:100500002AF948460490059606940794089404A88E
:100510000100280000F01FF940460490059606945B
:100520000794089404A80100280000F014F920237F
:100530000493059606940794089404AB19002800C8
:1005400000F009F940220492059606940794089455
:1005500004AB1900280000F0FEF8802104910596F4
:1005600006940794089404A9280000F0F4F80DB04C
:10057000F0BCBB46B246A946A046F0BD0010024002
:10058000000400480000014010B5174800F08BFA45
:10059000164C2078FFF7F8FE2378154AD25C824289
:1005A00010D0144AFF23936250690304802149024A
:1005B0000B40012181430B4393610C4B1B78062BAD
:1005C0000ED010BD0B49FF228A624C692200024006
:1005D0001204A04302438A61044A01331370ECE71A
:1005E000024B00221A70ECE7300000202C000020A3
:1005F0002C0E00080004004872B6FEE710B50C4847
:100600000C4B03600C4B4360002383600B4AC260B9
:10061000036143618033836100F044FB002804D10F
:10062000074B802292031A6010BDFFF7E5FFC0461A
:1006300030000020004401403F1F0000E70300009D
:1006400000E100E010B51A4A136801218B431360E2
:10065000174B1B68DB07FBD4164A136801210B43B9
:100660001360144B1B689B07FBD5124B1A68F821CB
:100670008A4378390A431A605A6870318A435A604B
:100680005A680D490A405A605A6803218A435A60E1
:10069000084B5B680C221A42FAD1084800F05EFB56
:1006A000032000F0B1F8002800D110BDFFF7A4FF2F
:1006B0000020024000100240FFF8FFFF00127A0005
:1006C00010B500F0C9F8FFF7BDFFFFF7A9FDFFF770
:1006D0009DFEFFF793FF174800F0AAF9002405E0FC
:1006E000154B195DA0B2FFF7F5FD0134052CF7D9C4
:1006F0000BE0104B1968114ACA62DA60104B0122F4
:100700001A70FA20400000F0C9F890200121C005BD
:1007100000F086F90028F8D1094B1B78002BE8D0AF
:10072000044B1968F422FF32CA62DA60044B0022DB
:100730001A70E6E7300000202C0E0008E7030000E6
:1007400000000020FEE7FEE77047704710B500F09C
:1007500093F810BD7047F0B5002216E0C6682B0074
:100760006B435F00FF18FC43A446BE430F695F4321
:100770003E43C6604C68022C27D0046865462C4076
:100780004D686B432343036001320C682300D34060
:1007900037D00123934025001D401C42F4D04B6804
:1007A000013B012BDAD883682C006C4366003619B4
:1007B000B3438E687443234383600C684368A34348
:1007C000CE68744323434360C8E7FF2D0BD8066A05
:1007D0001C006C4365432C01641BA6434C696543B4
:1007E00035430562C9E7466A2D0A2C006C436C4309
:1007F00065432C01641BA6434C6965433543456240
:10080000BBE70020F0BD000010B504000F4B1978C5
:10081000FA208000FFF778FC01000D4B1868FFF705
:1008200073FC00F0E1F800280DD1032C01D9012060
:100830000AE0013000222100404200F0A5F8054BFB
:100840001C60002000E0012010BDC0460800002010
:10085000040000200C00002010B5064A1368102187
:100860000B4313600320FFF7CFFF00F049FA00208D
:1008700010BDC04600200240034A1168034B1B789C
:100880005B1813607047C046780000200800002005
:10089000014B18687047C0467800002070B504000E
:1008A000FFF7F6FF0500631C02D0044B1B78E41829
:1008B000FFF7EEFF401BA042FAD370BD08000020F6
:1008C00010B503000079002850D01A68002A57D0CC
:1008D0005879012818D0022820D000280BD00120F8
:1008E0009A79002A4BD0022A2CD0032A34D0012A2C
:1008F0001ED0012043E023494C6894434C600A68B1
:100900001C6822430A60EBE71E49086890430860B0
:100910004A68186802434A600020E1E719490868FC
:1009200002430A604A68186802434A600020D7E719
:10093000144AD1681C68A143D1601B6891680B43BD
:1009400093601CE00F4A91681C68A14391601B688A
:10095000D1680B43D36012E00A4A91681C682143B6
:1009600091601B68D1680B43D36008E0054A1168A9
:100970001C68A1431160196853688B43536010BD14
:100980000020FCE70004014070B5002811DB83085B
:10099000134EC0339B009D5903242040C000FF220A
:1009A00014008440A54389010A4082402A439A5199
:1009B00070BD0F230340083B9B0806339B00094A88
:1009C000944663445C6803221040C000FC3215006A
:1009D0008540AC4389010A40824022435A60E7E7E0
:1009E00000E100E000ED00E0013880235B04984264
:1009F0000FD2094A50600948036A1B021B0AC02132
:100A000009060B4303620023936007331360002041
:100A100070470120FCE7C04610E000E000ED00E078
:100A200003690B4201D0012070470020FCE7000061
:100A30003D23C35C012B26D13C330222C254026801
:100A4000D36801210B43D3600368114A93420FD04E
:100A50008022D20593420BD00E4A934208D00E4A10
:100A6000934205D01A6801210A431A6000200BE066
:100A7000996807220A40062A07D01A6801210A430A
:100A80001A60002000E0012070470020FCE7C0460B
:100A9000002C0140000400400040014070477047B6
:100AA00070477047704710B5040003681A699207D1
:100AB0000FD5DA6892070CD5032252421A6101233E
:100AC000037703689B699B0763D0FFF7E9FF002367
:100AD000237723681A69520712D5DA6852070FD5AF
:100AE000052252421A610223237723689A69C023A0
:100AF0009B001A4253D02000FFF7D2FF0023237738
:100B000023681A69120710D5DA6812070DD5092271
:100B100052421A61042323772368DB699B0745D07F
:100B20002000FFF7BDFF0023237723681A69D20650
:100B300012D5DA68D2060FD5112252421A61082363
:100B400023772368DA69C0239B001A4235D020003E
:100B5000FFF7A6FF0023237723681A69D20702D57F
:100B6000DA68D20730D423681A69120602D5DA6827
:100B7000120630D423681A69520602D5DA68520682
:100B800030D423681A69920602D5DA68920630D406
:100B900010BDFFF784FF2000FFF783FF97E72000D9
:100BA000FFF77DFF2000FFF77CFFA7E72000FFF79E
:100BB00076FF2000FFF775FFB5E72000FFF76FFF16
:100BC0002000FFF76EFFC5E7022252421A612000A3
:100BD000FFF764FFC7E7812252421A61200000F04C
:100BE0008EF8C7E7412252421A612000FFF75AFFF0
:100BF000C7E7212252421A61200000F07FF8C7E7C0
:100C00000368214A904206D08022D205904202D049
:100C10001E4A904203D1702293434A6813431A4AF2
:100C2000904212D08022D20590420ED0174A9042B4
:100C30000BD0174A904208D0164A904205D0164A67
:100C4000904202D0154A904203D1154A1340CA6817
:100C50001343802293434A69134303608B68C36242
:100C60000B688362084B984208D00A4B984205D023
:100C7000094B984202D0094B984201D10B6903639A
:100C8000012343617047C046002C0140000400402E
:100C90000020004000400140004401400048014065
:100CA000FFFCFFFF70B5041E26D03D23C35C002B64
:100CB0001CD03D2502236355210001C9FFF7A0FF89
:100CC00001234622A354083AA3540132A35401320B
:100CD000A3540132A3540132A3540132A35401326C
:100CE000A3540132A3546355002070BD3C3300224D
:100CF000C25400F01DF8DCE70120F6E770477047AA
:100D000082B00A4B996901221143996199690A409D
:100D10000092009ADA69802149050A43DA61DB69A9
:100D20000B400193019B02B07047C0460010024087
:100D300082B00268074B9A4201D002B07047064A5F
:100D4000916980208002014391619369034001937E
:100D5000019BF2E70044014000100240014B186083
:100D60007047C046040000200D488546FFF7F2FC9E
:100D70000C480D490D4A002302E0D458C4500433F6
:100D8000C4188C42F9D30A4A0A4C002301E01360CC
:100D90000432A242FBD300F019F8FFF791FCFEE702
:100DA0000020002000000020100000203C0E000861
:100DB000100000207C000020FEE703008218934210
:100DC00000D1704719700133F9E7000070B50026B3
:100DD0000C4C0D4D641BA410A64209D1002600F056
:100DE00019F80A4C0A4D641BA410A64205D170BD27
:100DF000B300EB5898470136EEE7B300EB5898473D
:100E00000136F2E7340E0008340E0008380E0008F0
:100E1000340E0008F8B5C046F8BC08BC9E467047C2
:0C0E2000F8B5C046F8BC08BC9E46704700
:080E2C00AA55CC33F00F0000C1
:040E3400E9000008C9
:040E3800C1000008ED
:100E3C000100000000127A00010000000400000014
:0400000508000D6979
:00000001FF
