:020000040800F2
:1000000000200020F1150008E5080008E7080008B6
:1000100000000000000000000000000000000000E0
:10002000000000000000000000000000E9080008D7
:100030000000000000000000EB080008ED080008C8
:100040004116000841160008411600084116000834
:10005000411600082D060008411600084116000848
:10006000411600084116000841160008F50800086E
:100070004116000841160008411600084116000804
:100080004116000841160008000000004116000853
:1000900041160008411600084116000841160008E4
:1000A00041160008411600084116000841160008D4
:1000B0004116000800000000411600080000000082
:1000C00010B5064C2378002B07D1054B002B02D02E
:1000D000044800E000BF0123237010BD0C00002085
:1000E000000000009C160008044B10B5002B03D044
:1000F0000349044800E000BF10BDC04600000000F6
:10010000100000209C160008002243088B4274D384
:1001100003098B425FD3030A8B4244D3030B8B4208
:1001200028D3030C8B420DD3FF22090212BA030C11
:100130008B4202D31212090265D0030B8B4219D3F2
:1001400000E0090AC30B8B4201D3CB03C01A524112
:10015000830B8B4201D38B03C01A5241430B8B425A
:1001600001D34B03C01A5241030B8B4201D30B0343
:10017000C01A5241C30A8B4201D3CB02C01A52416A
:10018000830A8B4201D38B02C01A5241430A8B422D
:1001900001D34B02C01A5241030A8B4201D30B0216
:1001A000C01A5241CDD2C3098B4201D3CB01C01A30
:1001B000524183098B4201D38B01C01A524143093A
:1001C0008B4201D34B01C01A524103098B4201D328
:1001D0000B01C01A5241C3088B4201D3CB00C01A95
:1001E000524183088B4201D38B00C01A524143080D
:1001F0008B4201D34B00C01A5241411A00D2014632
:10020000524110467047FFE701B5002000F006F8A4
:1002100002BDC0460029F7D076E770477047C04658
:1002200010B586B004AC08220021200001F009FAC4
:100230001E4B5A698021C9030A435A615A690A4010
:100240000392039A5A69802189020A435A615A69C2
:100250000A400292029A5A698021C9020A435A61ED
:100260005B690B400193019B114A93680F218B43FB
:1002700093609021C905CB68032083430122134377
:10028000CB600B6883430B6004922271002363717F
:10029000A271200000F082FB00220021052000F066
:1002A000E1FB052000F00EFC06B010BD001002407E
:1002B0000000014000B583B0094A51690123194388
:1002C0005161526913400193019B002200210B20D0
:1002D00000F0C8FB0B2000F0F5FB03B000BDC046EA
:1002E0000010024082B003004000C01800230193B8
:1002F00004E0C046C046019B01330193019B834249
:10030000F7D302B07047000070B51420FFF7EAFF82
:100310000A4CA36980252D022B43A3611420FFF70B
:10032000E1FFA26980231B061343A3611420FFF79A
:10033000D9FFA3691D43A56170BDC04600080048F0
:1003400010B50400454A91698023DB010B4393619A
:1003500043B2002B46DB9022D205916980231B0615
:100360000B439361630645D59022D20591698023A2
:100370005B010B439361A30644D5394A91698023FD
:100380009B000B439361E30643D5354A9169802373
:100390005B000B439361FFF7B7FF230740D5902223
:1003A000D205916980231B020B43936163073FD5FC
:1003B0009022D205916980235B010B439361A307CF
:1003C0003ED5274A916980239B000B439361E40744
:1003D0003DD5234A916980235B000B439361FFF76E
:1003E00093FF10BD9022D205916980231B020B431D
:1003F0009361B7E79022D205916980235B050B4397
:100400009361B8E7164A916980239B040B4393617B
:10041000B9E7134A916980235B040B439361BAE700
:100420009022D205916980231B060B439361BDE79F
:100430009022D205916980235B050B439361BEE74F
:10044000074A916980239B040B439361BFE7044AE9
:10045000916980235B040B439361C0E70008004867
:100460000004004870B50500002403E0FFF768FFB2
:100470000134E4B2285D0028F8D170BD10B5040045
:10048000474A91698023DB050B43936143B2002BFC
:1004900049DB9022D205916980231B060B439361AF
:1004A000630648D59022D205916980235B010B43F6
:1004B0009361A30647D53B4A916980239B000B4378
:1004C0009361E30646D5374A916980235B000B436D
:1004D0009361FFF719FF230743D59022D205916955
:1004E00080231B020B439361630742D59022D20500
:1004F000916980235B010B439361A30741D5294A8E
:10050000916980239B000B439361E40740D5254A02
:10051000916980235B000B439361FFF7F5FE22484E
:10052000FFF7E0FE10BD9022D205916980231B02E7
:100530000B439361B4E79022D205916980235B0558
:100540000B439361B5E7174A916980239B040B43E2
:100550009361B6E7134A916980235B040B4393616F
:10056000B7E79022D205916980231B060B43936164
:10057000BAE79022D205916980235B050B43936112
:10058000BBE7084A916980239B040B439361BCE756
:10059000044A916980235B040B439361BDE7C04625
:1005A0000008004800040048B80B000010B51B4BC1
:1005B0005969802292020A435A6159698022D20203
:1005C0000A435A615969802212030A435A619022F0
:1005D000D20511688223DB050B431360104A1168B2
:1005E000A023DB020B4313600E4A1168A023DB0536
:1005F0000B4313600C48FFF775FE3320FFF73EFFF7
:100600003220FFF73BFF0C20FFF738FF2820FFF7D1
:1006100035FF0120FFF732FF10BDC0460010024039
:1006200000040048000800483075000010B500F0D4
:10063000AFF91C4B18601C4B1B68C01A0A2815D94F
:100640001A4B1B68022B15D00133184A1360012B7B
:100650001DD01748FFF746FE0120FFF70FFF154892
:10066000FFF700FF104B0F4A12681A60012000F0DC
:10067000A7FB10BD0D4B00221A600D48FFF732FE9C
:100680000120FFF7FBFE0C48FFF7ECFEEAE7084805
:10069000FFF728FE0120FFF7F1FE0848FFF7E2FE12
:1006A000E0E7C04630000020080100202C000020B8
:1006B000B80B0000C0160008B4160008BC160008ED
:1006C00072B6FEE700B58FB0102200210AA800F034
:1006D000B8FF0822002108A800F0B3FF1C22002167
:1006E00001A800F0AEFF20488023DB050360002353
:1006F000436083601D4A1268013AC260036180331F
:10070000836100F0B5FC002824D180235B010A93AB
:1007100015480AA900F026FE00281DD1124800F055
:10072000D3FC00281AD10023089309930E4808A986
:1007300000F09CFE002813D1002301930293039341
:1007400005930948002201A900F05AFD002809D1AB
:100750000FB000BDFFF7B4FFFFF7B2FFFFF7B0FF28
:10076000FFF7AEFFFFF7ACFF780000202800002065
:1007700000B58FB0102200210AA800F062FF082205
:10078000002108A800F05DFF1C22002101A800F054
:1007900058FF2148214B0360002343608360204AB7
:1007A000C26003618033836100F062FC002828D1BD
:1007B00080235B010A9318480AA900F0D3FD0028A2
:1007C00021D1154800F0ACFC00281ED1002308936D
:1007D0000993114808A900F049FE002817D16023A9
:1007E000019300230293039305930B48082201A968
:1007F00000F034FD00280CD1074800F0CBFE0FB00C
:1008000000BDFFF75DFFFFF75BFFFFF759FFFFF745
:1008100057FFFFF755FFC046C0000020000400400E
:10082000FF03000010B51A4A136801218B431360BF
:10083000174B1B68DB07FBD4164A136801210B43D7
:100840001360144B1B689B07FBD5124B1A68F821E9
:100850008A4378390A431A605A6870318A435A6069
:100860005A680D490A405A605A6803218A435A60FF
:10087000084B5B680C221A42FAD1084800F0B2FE1D
:10088000032000F041F8002800D110BDFFF718FF49
:100890000020024000100240FFF8FFFF00127A0023
:1008A00010B500F059F8FFF781FEFFF7BBFFFFF727
:1008B000B7FCFFF7FFFCFFF705FFFFF759FF074CF9
:1008C0002000FFF70FFD0120FFF7D8FD0448FFF7D8
:1008D000C9FD2000FFF706FDFEE7C046B80B00008B
:1008E000B4160008FEE7FEE77047704710B500F049
:1008F00043F810BD10B5024800F046F910BDC046DF
:10090000340000207047000010B504000F4B197828
:10091000FA208000FFF7F8FB01000D4B1868FFF785
:10092000F3FB00F0DBF800280DD1032C01D90120E6
:100930000AE0013000222100404200F093F8054B0C
:100940001C60002000E0012010BDC0460400002013
:10095000000000200800002010B5064A136810218E
:100960000B4313600320FFF7CFFF00F0B5FD00201D
:1009700010BDC04600200240034A1168034B1B789B
:100980005B1813607047C0460C0100200400002073
:10099000014B18687047C0460C01002010B50300D9
:1009A0000079002850D01A68002A57D058790128B9
:1009B00018D0022820D000280BD001209A79002AD4
:1009C0004BD0022A2CD0032A34D0012A1ED0012079
:1009D00043E023494C6894434C601A680C682243F6
:1009E0000A60EBE71E490868904308601A68486887
:1009F00002434A600020E1E71949086802430A609F
:100A00001A68486802434A600020D7E71C68144A05
:100A1000D168A143D1601B6891680B4393601CE0CF
:100A20001C680F4A9168A14391601B68D1680B4311
:100A3000D36012E019680A4A9468214391601B68E8
:100A4000D1680B43D36008E01C68054A1168A143D4
:100A50001160196853688B43536010BD0020FCE798
:100A60000004014070B5002811DB8308134DC0332A
:100A70009B005C5903221040C000FC3216008640E7
:100A8000B44389010A40824022435A5170BD0F236A
:100A90000340083B9B0806339B00094A9446634485
:100AA0005C6803221040C000FC3215008540AC4356
:100AB00089010A40824022435A60E7E700E100E0F2
:100AC00000ED00E0002805DB1F2318401E3B83409B
:100AD000014A13607047C04600E100E001388023FE
:100AE0005B0498420FD2094A50600948036A1B020E
:100AF0001B0AC02109060B430362002393600733DE
:100B00001360002070470120FCE7C04610E000E0C1
:100B100000ED00E010B504000068054B9C46604401
:100B20001421FFF7F1FA80002064024BE36310BD4B
:100B3000F8FFFDBF0000024070B5041E20D0212543
:100B40000223435501680A680E4B1A4043688068C7
:100B50000343E06803432069034360690343A069DA
:100B60000343E069034313430B602000FFF7D2FF08
:100B70000023A363012262551F32A354002070BDDD
:100B80000120FCE70FC0FFFF70B5C36B1A68046853
:100B90002568016C04238B401A4212D06B0710D5D4
:100BA00023689B0603D42368042293432360016CCB
:100BB000C26B04238B405360C36A002B00D098475C
:100BC00070BD02238B401A4218D0AB0716D523689C
:100BD0009B0606D423680A22934323602123093A03
:100BE000C254016CC26B02238B405360202300224D
:100BF000C254836A002BE3D09847E1E708238B4077
:100C00001A42DDD02D07DBD523680E2293432360E3
:100C1000016CC26B01231C008C4054608363212251
:100C200083541F330022C254036B002BC8D0984753
:100C3000C6E70000F0B583B0002356E086685F0089
:100C40000324BC40A643CC68BC4034438460446861
:100C500094434E683609012232409A402243426052
:100C600053E0DE080836B600375805321A409200C5
:100C70000F249440A7430C69944022003A43325019
:100C800056E0032600E00026A64034003C43023232
:100C90009200444E9451444A9768EA433E00AE4362
:100CA0004C68E40201D53E002E433F4CA660E76845
:100CB0003E0016404C68A40201D53E002E433A4C3B
:100CC000E66067683E0016404C68A40301D53E000C
:100CD0002E43354C6660266832404C68E40301D5EB
:100CE0002A003243304C226001330C682200DA4083
:100CF00056D001229A40250015401442F4D04E6887
:100D000003243440013C012C98D94C680322224032
:100D1000032A08D0C4685E000322B24094438A6864
:100D2000B2402243C2604C6803222240022A98D07B
:100D300004685E0003221700B740BC434F683A4086
:100D4000B240224302604C68C02292021442CBD0CF
:100D5000164CA66901221643A661A469224001929D
:100D6000019A9A08941CA4000E4EA75903241C4013
:100D7000A4000F26A640B7439026F605B04282D0C5
:100D80000B4EB04208D00B4EB04207D00A4EB042D4
:100D900000D176E7052677E7012675E7022673E797
:100DA00003B0F0BD0000014000040140001002400B
:100DB0000004004800080048000C0048704700008C
:100DC00010B5054B5B69184200D110BD024B58614C
:100DD000FFF7F4FFF9E7C0460004014030B5036AAD
:100DE000012293430362056A426883697324A34323
:100DF0000C681C4302239D438B682B43154DA8426E
:100E000008D0154DA84205D0144DA84202D0144D6B
:100E1000A84206D10825AB431D00CB682B4304250F
:100E2000AB430C4DA84208D00B4DA84205D00B4D4A
:100E3000A84202D00A4DA84205D10A4D2A404D6968
:100E400015438A692A43426084614A6842630362A7
:100E500030BDC046002C014000400140004401402C
:100E600000480140FFFCFFFF30B5036A194A1340F8
:100E70000362046A4268C3697325AB430D681D436E
:100E8000154B1C408B681B022343144CA04219D005
:100E9000124CA04208D0124CA04205D0114CA042E6
:100EA00002D0114CA04207D1104C22404C692401C1
:100EB00014438A69120122434260C5614A68C263D1
:100EC000036230BD0A4C1C40CB681B022343094C13
:100ED0002340DDE7FFFEFFFFFFFDFFFF002C014089
:100EE000004001400044014000480140FFCFFFFFA7
:100EF000FFF7FFFFFFFBFFFF30B5036A134A134004
:100F00000362046A4368C269114D2A400D682D02CC
:100F10001543104A14408A68120322430E4CA04223
:100F200008D00E4CA04205D00D4CA04202D00D4C72
:100F3000A04204D10C4C1C404B699B0123434360ED
:100F4000C5614B680364026230BDC046FFEFFFFF1E
:100F5000FF8CFFFFFFDFFFFF002C0140004001403E
:100F60000044014000480140FFBFFFFF30B5036A65
:100F7000046A0125AC4304628469EF35AC43120175
:100F800022430A24A3430B438261036230BD000065
:100F900030B5036A1024A34303628469036A054DD4
:100FA0002C4012032243A024A34309011943826168
:100FB000016230BDFF0FFFFF8368702293430B4334
:100FC000693A134383607047704770470368214A4A
:100FD000904206D08022D205904202D01E4A904212
:100FE00003D1702293434A6813431A4A904212D0A5
:100FF0008022D20590420ED0174A90420BD0174A59
:10100000904208D0164A904205D0164A904202D02B
:10101000154A904203D1154A1A40CB6813438022E7
:1010200093434A69134303608B68C3620B6883620E
:10103000084B984208D00A4B984205D0094B984279
:1010400002D0094B984201D10B690363012343612C
:101050007047C046002C01400004004000200040C2
:10106000004001400044014000480140FFFCFFFFF8
:1010700070B5041E26D03D23C35C002B1CD03D253B
:1010800002236355210001C9FFF7A0FF0123462277
:10109000A354083AA3540132A3540132A354013299
:1010A000A3540132A3540132A3540132A354013298
:1010B000A3546355002070BD3C330022C25400F09D
:1010C00023FADCE70120F6E770B5041E26D03D23A5
:1010D000C35C002B1CD03D2502236355210001C9B0
:1010E000FFF774FF01234622A354083AA3540132A8
:1010F000A3540132A3540132A3540132A354013248
:10110000A3540132A3540132A3546355002070BD8F
:101110003C330022C254FFF757FFDCE70120F6E71B
:1011200070B5041E26D03D23C35C002B1CD03D258A
:1011300002236355210001C9FFF748FF012346221E
:10114000A354083AA3540132A3540132A3540132E8
:10115000A3540132A3540132A3540132A3540132E7
:10116000A3546355002070BD3C330022C254FFF7E6
:101170002CFFDCE70120F6E770B5036A10229343E9
:101180000362026A44688369174D2B400D682D0283
:101190001D4320239A438B681B011343134A90423B
:1011A00019D0124A904208D0114A904205D0114AF3
:1011B000904202D0104A904207D1104A14404A6926
:1011C000920022438C69A4001443446085614A68FC
:1011D0008263036270BD802293431E00CB681B01B3
:1011E0003343403A9343DCE7FF8CFFFF002C014080
:1011F000004001400044014000480140FFF3FFFF70
:1012000010B504003C23C35C012B24D03C230120F7
:10121000E054082A1AD008D8002A12D0042A0CD187
:101220002068FFF7A9FF002007E00C2A04D12068FE
:10123000FFF762FE002000E001203C230022E25480
:1012400010BD2068FFF7CAFD0020F6E72068FFF711
:101250000BFE0020F1E70220F2E7000070B5040069
:101260000D003C23C35C012B00D16AE03C2301212B
:10127000C154082A50D01CD8002A38D0042A16D1CC
:1012800000682900FFF778FF2268916980231B011D
:101290000B439361226893692B490B40936121684A
:1012A0008B692A69120213438B6100201BE008003E
:1012B00019E00C2A16D100682900FFF71DFE2268EC
:1012C000D16980231B010B43D3612268D3691E4976
:1012D0000B40D3612168CB692A6912021343CB61A9
:1012E000002000E001203C230022E25470BD006891
:1012F0002900FFF773FD2268936908210B4393616E
:101300002268936904398B43936122689369296940
:101310000B4393610020E6E700682900FFF7A4FD76
:101320002268D36908210B43D3612268D369043949
:101330008B43D3612268D36929690B43D3610020B1
:10134000D1E70220D2E7C046FFFBFFFF30B584683B
:10135000034D2C401B0213430B432343836030BDDA
:10136000FF00FFFF10B5040008003C23E35C012BE5
:1013700000D177E03C230122E25401330132E254F0
:101380002268936838490B409360016860294FD008
:1013900029D8402957D00CD9502922D14168C26898
:1013A0002068FFF7E3FD20685021FFF705FE0020CD
:1013B00005E020290ED009D930290BD001203D238A
:1013C0000122E254013B0022E25410BD002901D069
:1013D000102904D12068FFF7EFFD0020EFE701207E
:1013E000EDE70120EBE780225201914236D08022C6
:1013F000920191420DD181684268C3682068FFF76D
:10140000A5FF226891688023DB010B4393600020D5
:10141000D5E7702924D181684268C3682068FFF746
:1014200095FF2268936877210B4393600020C6E7FD
:101430004168C2682068FFF7ABFD20686021FFF7B4
:10144000BBFD0020BBE74168C2682068FFF78EFD46
:1014500020684021FFF7B0FD0020B0E70020AEE794
:101460000120ACE70220B0E78800FFFF30B53C2345
:10147000C35C012B28D03C230122C254013301322A
:10148000C25403685C689D686E3294430A682243C4
:101490005A6003680D4A934209D08022D2059342D4
:1014A00005D00B4A934202D00A4A934204D18022CB
:1014B00095434A682A439A603D230122C254013B66
:1014C0000022C254002030BD0220FCE7002C014065
:1014D000000400400040014082B00A4B996901229B
:1014E0001143996199690A400092009ADA69802152
:1014F00049050A43DA61DB690B400193019B02B0A5
:101500007047C0460010024010B582B00400036866
:101510008022D205934204D01A4A934227D002B0C7
:1015200010BD194AD16901231943D161D269134011
:101530000093009B1548164B036010234360002363
:1015400083608022C2608132FF32026180221201F8
:10155000426120228261C361FFF7EEFA002803D1C5
:101560000A4B63625C62DAE7FFF7AAF8F8E7064A1B
:10157000D16902231943D161D26913400193019BC0
:10158000CDE7C046000400400010024034000020B7
:101590005800024010B586B004001422002101A8B2
:1015A00000F04FF822680C4B9A4201D006B010BDF3
:1015B0000A4B5A698021C9020A435A615B690B4090
:1015C0000093009B0123019302220292059301A93B
:1015D0000348FFF72FFBE9E700040040001002403A
:1015E00000040048014B18607047C046000000200E
:1015F0000D488546FFF786F90C480D490D4A002332
:1016000002E0D458C4500433C4188C42F9D30A4AB7
:101610000A4C002301E013600432A242FBD300F025
:1016200019F8FFF73DF9FEE7002000200000002038
:101630000C000020D41600080C000020100100202F
:10164000FEE703008218934200D1704719700133FE
:10165000F9E7000070B500260C4C0D4D641BA4107A
:10166000A64209D1002600F019F80A4C0A4D641B65
:10167000A410A64205D170BDB300EB5898470136BF
:10168000EEE7B300EB5898470136F2E7CC160008B6
:10169000CC160008D0160008CC160008F8B5C046D5
:1016A000F8BC08BC9E467047F8B5C046F8BC08BCFC
:0416B0009E4670479B
:1016B40053696E65000000005361770054726961DC
:0816C4006E676C650000000078
:0416CC00E900000829
:0416D000C10000084D
:0C16D40000127A00010000000400000079
:04000005080015F1E9
:00000001FF
