:020000040800F2
:1000000000200020211800085D0700085F07000895
:1000100000000000000000000000000000000000E0
:100020000000000000000000000000006107000860
:1000300000000000000000006307000865070008DA
:10004000711800087118000871180008711800086C
:1000500071180008F50400087118000871180008EC
:10006000711800087118000871180008711800084C
:1000700001050008711800087118000871180008BF
:1000800071180008711800080000000071180008BD
:10009000711800087118000871180008711800081C
:1000A000711800087118000871180008711800080C
:1000B000711800080000000071180008000000001E
:1000C00010B5064C2378002B07D1054B002B02D02E
:1000D000044800E000BF0123237010BD1000002081
:1000E00000000000CC180008044B10B5002B03D012
:1000F0000349044800E000BF10BDC04600000000F6
:1001000014000020CC180008002243088B4274D34E
:1001100003098B425FD3030A8B4244D3030B8B4208
:1001200028D3030C8B420DD3FF22090212BA030C11
:100130008B4202D31212090265D0030B8B4219D3F2
:1001400000E0090AC30B8B4201D3CB03C01A524112
:10015000830B8B4201D38B03C01A5241430B8B425A
:1001600001D34B03C01A5241030B8B4201D30B0343
:10017000C01A5241C30A8B4201D3CB02C01A52416A
:10018000830A8B4201D38B02C01A5241430A8B422D
:1001900001D34B02C01A5241030A8B4201D30B0216
:1001A000C01A5241CDD2C3098B4201D3CB01C01A30
:1001B000524183098B4201D38B01C01A524143093A
:1001C0008B4201D34B01C01A524103098B4201D328
:1001D0000B01C01A5241C3088B4201D3CB00C01A95
:1001E000524183088B4201D38B00C01A524143080D
:1001F0008B4201D34B00C01A5241411A00D2014632
:10020000524110467047FFE701B5002000F006F8A4
:1002100002BDC0460029F7D076E770477047C04658
:10022000F0B5C64600B58CB00AAD08220021280002
:1002300001F01FFB1822002104A801F01AFB274B34
:100240005A698021C9030A435A615A690A400392D4
:10025000039A5A69802189020A435A615A690A40FD
:100260000292029A5A698021C9020A435A615B6963
:100270000B400193019B1A4F80239846BB62194A99
:1002800093680F218B4393609022D205D3680C3979
:100290008B4301242343D36013688B4313600A9478
:1002A0002C7100266E71AC71280000F019FB4346DA
:1002B0000493059406960796089604A9380000F062
:1002C00056FA00220021052000F03AFD052000F03A
:1002D00067FD0CB080BCB846F0BDC04600100240BF
:1002E000000400480000014082B003004000C01834
:1002F0000023019304E0C046C046019B01330193F3
:10030000019B8342F7D302B07047000070B5142000
:10031000FFF7EAFF0A4CA36980252D022B43A36156
:100320001420FFF7E1FFA26980231B061343A3619A
:100330001420FFF7D9FFA3691D43A56170BDC04616
:100340000008004810B50400474A91698023DB0586
:100350000B43936143B2002B49DB9022D205916994
:1003600080231B060B439361630648D59022D20578
:10037000916980235B010B439361A30647D53B4AF8
:10038000916980239B000B439361E30646D5374A6E
:10039000916980235B000B439361FFF7B7FF23074D
:1003A00043D59022D205916980231B020B439361B0
:1003B000630742D59022D205916980235B010B43EC
:1003C0009361A30741D5294A916980239B000B4380
:1003D0009361E40740D5254A916980235B000B4374
:1003E0009361FFF793FF2248FFF77EFF10BD902235
:1003F000D205916980231B020B439361B4E79022DD
:10040000D205916980235B050B439361B5E7174AD9
:10041000916980239B040B439361B6E7134A91696A
:1004200080235B040B439361B7E79022D205916967
:1004300080231B060B439361BAE79022D205916992
:1004400080235B050B439361BBE7084A91698023D6
:100450009B040B439361BCE7044A916980235B04CE
:100460000B439361BDE7C046000800480004004804
:10047000B80B000010B51B4B5969802292020A4349
:100480005A6159698022D2020A435A61596980220D
:1004900012030A435A619022D20511688223DB05B8
:1004A0000B431360104A1168A023DB020B43136057
:1004B0000E4A1168A023DB050B4313600C48FFF7BD
:1004C00013FF3320FFF73EFF3220FFF73BFF0C20E6
:1004D000FFF738FF2820FFF735FF0120FFF732FF35
:1004E00010BDC0460010024000040048000800484B
:1004F0003075000010B5012000F048FD10BD00006F
:1005000010B5054C200000F011FB044B18602000D2
:1005100000F012FB10BDC046300000202C0000206F
:1005200072B6FEE700B585B00C22002101A801F0EB
:10053000A0F92148214B0360002343608360C3601E
:100540000122026104214161037643768376C376FA
:10055000C221FF31C16103629E39FF394354826277
:1005600000F022FA002822D10623019380235B01A8
:10057000029380235B0503930F4801A900F044FB1D
:10058000002816D10D4A916880231B060B43936007
:100590000A4B9B68002BFBDB084A936801210B4345
:1005A0009360064B1B68DB07FBD505B000BDFFF76A
:1005B000B7FFFFF7B5FFC046300000200024014020
:1005C00000B58FB0102200210AA801F052F90822CC
:1005D000002108A801F04DF91C22002101A801F01A
:1005E00048F92048204B03600023436083601F4A82
:1005F000C2600361836100F021FE002828D18023BE
:100600005B010A9317480AA900F038FF002821D19E
:10061000144800F03FFE00281ED1002308930993E0
:10062000104808A901F03AF8002817D16023019377
:1006300000230293039305930A48082201A900F0BE
:1006400099FE00280CD1074801F0BCF80FB000BD9E
:10065000FFF766FFFFF764FFFFF762FFFFF760FF3A
:10066000FFF75EFF70000020000400407FBB000029
:1006700010B5244A136801218B431360214B1B687A
:10068000DB07FBD4204A136801210B4313601E4B88
:100690001B689B07FBD51C4A1368F8218B437839EC
:1006A0000B431360536B7F390B435363164B5B6BE8
:1006B0009B07FBD5144B5A6BF8218A4378390A43C0
:1006C0005A635A6870318A435A605A680F490A401F
:1006D0005A605A6803218A435A600B4B5B680C22AC
:1006E0001A42FAD10A4801F095F8032000F09CF86C
:1006F000002805D1044A536B04218B43536310BD7A
:10070000FFF70EFF0020024000100240FFF8FFFF3D
:1007100000127A0010B500F0AFF8FFF7A9FFFFF75D
:100720007FFDFFF7FFFEFFF74BFFFFF7A3FE084833
:10073000082100F035FF8021064800F01DFC044B25
:100740001B680022DA63044B186800F0B7F8F2E780
:10075000700000200004004800000020FEE7FEE7D3
:100760007047704710B500F097F810BD7047F0B5AE
:10077000002216E00B699C46C4682B006B435E00A8
:10078000F618F743B44366465E433443C4604C688E
:10079000022C26D04D6804683C406B432343036021
:1007A00001320C682300D3403BD001239340250045
:1007B0001D401C42F4D04B68013B012BDAD88F68F6
:1007C00083682C006C4366003619B3437C43234393
:1007D00083600E68CC684368B3437443234343602B
:1007E000C8E7FF2D0DD84C69A446066A1C006C436F
:1007F0006C4325012D1BAE4365466C4334430462B4
:10080000C8E74C69A446466A2D0A2C006C436C4329
:100810006C4325012D1BAE4365466C433443446253
:10082000B8E70020F0BD000010B504000F4B1978A8
:10083000FA208000FFF768FC01000D4B1868FFF7F5
:1008400063FC00F0B9FA00280DD1032C01D9012076
:100850000AE0013000222100404200F071FA054B0D
:100860001C60002000E0012010BDC04608000020F0
:10087000040000200C00002010B5064A1368102167
:100880000B4313600320FFF7CFFF00F03DFF002074
:1008900010BDC04600200240034A1168034B1B787C
:1008A0005B1813607047C046B800002008000020A5
:1008B000014B18687047C046B800002070B50400AE
:1008C000FFF7F6FF0500631C02D0044B1B78E41809
:1008D000FFF7EEFF401BA042FAD370BD08000020D6
:1008E00010B503000079002850D01A68002A57D0AC
:1008F0005879012818D0022820D000280BD00120D8
:100900009A79002A4BD0022A2CD0032A34D0012A0B
:100910001ED0012043E023494C6894434C601A6880
:100920000C6822430A60EBE71E49086890430860A0
:100930001A68486802434A600020E1E719490868DC
:1009400002430A601A68486802434A600020D7E7F9
:100950001C68144AD168A143D1601B6891680B439D
:1009600093601CE01C680F4A9168A14391601B686A
:10097000D1680B43D36012E019680A4A9468214396
:1009800091601B68D1680B43D36008E01C68054A7E
:100990001168A1431160196853688B43536010BDFF
:1009A0000020FCE70004014070B5041E00D1B4E053
:1009B000836B002B00D180E0A36BDB0600D5A6E0A3
:1009C00023689A68042108001040114200D09EE07C
:1009D000A26B53490A400631FF310A43A26399686A
:1009E00003220A40012A6ED0DA6818218A43A168DE
:1009F0000A43DA60226813699B009B0861680B4315
:100A000013612268D36847490B40D360237E9B0360
:100A1000627ED2031343A17E4A031343A26A012AD2
:100A200058D0802252011343E26813432269022AFC
:100A300052D003432422A25C52001343E27E012AD7
:100A40004CD0E269C221FF318A4202D0216A0A43B6
:100A500013432168CA681A43CA60E26A80214905C3
:100A60008A420DD0012A0BD0022A09D0032A07D0CE
:100A7000042A05D0052A03D0062A01D0072A0AD164
:100A80002068416907229143416120684169E56A14
:100A90002A400A4342612268D26823490A409A42A6
:100AA0002BD0A36B12229343023A1343A363E36B4D
:100AB0000F3A1343E36301202EE0C36334228354CF
:100AC00000F03AFE78E71A68D2079AD4DA6812047E
:100AD00097D489E70200A6E70420AAE7002903D1FA
:100AE000802252021343ACE7A26B20210A43A26387
:100AF000E26B1F390A43E263A3E70023E363A36BBE
:100B000003229343023A1343A363002004E0A36B40
:100B100010221343A363012070BD0120FCE7C046EF
:100B2000FDFEFFFF1902FEFFE7FF3F830368186C1D
:100B3000704770477047704770B5040003681D68C0
:100B40005E686A0701D5720703D42A0727D53207E2
:100B500025D5A26BD20604D4A16B802292000A4351
:100B6000A263D968C0221201114212D1A27E002ACA
:100B70000FD12A070DD59A6852072DD45A680C2137
:100B80008A435A60A36B1F4A13400432FF32134357
:100B9000A3632000FFF7CDFF23680C221A602B0609
:100BA00001D5330621D4ED0615D5F60613D5A36A73
:100BB000012B03D02368DB68DB0709D5E36B022236
:100BC0001343E36323680E321A602000FFF7B3FF7C
:100BD000236810221A6070BDA36B20221343A36305
:100BE000E36B1F3A1343E363D3E7A26B80235B02FB
:100BF0001343A3632000FFF79DFF236880221A6040
:100C0000D1E7C046FEFEFFFF30B583B004000023ED
:100C100001933433C35C012B00D180E034230122E3
:100C2000C254026893685B076BD448683D4B984296
:100C30004CD0936A0D680120A84003439362E36A95
:100C400080225205934213D0013B062B10D98868AD
:100C50002268556907232B40984209D05069072321
:100C600098435061206842698D682B40134343616B
:100C70000B681A00103A022A4DD82B4A1268102B22
:100C80000ED0112B09D080235B041343264A136036
:100C90000B68102B07D0002038E08023DB03F4E73B
:100CA00080231B04F1E7214B18682149FFF72CFA38
:100CB00003008000C0184000019002E0019B013B4E
:100CC0000193019B002BF9D100201FE0936A0D686E
:100CD0000120A840834393620B681A00103A022A4D
:100CE0001BD8114A1268102B09D0112B05D0114BBB
:100CF00013400D4A1360002008E00F4BF8E70F4B3C
:100D0000F6E7836B20221343836301203423002200
:100D1000E25403B030BD0020F8E70020F6E70220DF
:100D2000F7E7C0460110000008270140040000203A
:100D300040420F00FFFFFFFEFFFFBFFFFFFF7FFFEF
:100D400070B5002811DB8308134DC0339B005C593C
:100D500003221040C000FC3216008640B4438901D3
:100D60000A40824022435A5170BD0F230340083B82
:100D70009B0806339B00094A944663445C6803223F
:100D80001040C000FC3215008540AC4389010A4088
:100D9000824022435A60E7E700E100E000ED00E016
:100DA000002805DB1F2318401E3B8340014A1360C7
:100DB0007047C04600E100E0013880235B049842A0
:100DC0000FD2094A50600948036A1B021B0AC0215E
:100DD00009060B430362002393600733136000206E
:100DE00070470120FCE7C04610E000E000ED00E0A5
:100DF000F0B583B0002356E086685F000324BC4052
:100E0000A643CC68BC4034438460446894434E6835
:100E10003609012232409A402243426053E0DE0804
:100E20000836B600375805321A4092000F24944015
:100E3000A7430C69944022003A43325056E00326FF
:100E400000E00026A64034003C4302329200444EAB
:100E50009451444A9768EA433E00AE434C68E4022A
:100E600001D53E002E433F4CA660E7683E00164089
:100E70004C68A40201D53E002E433A4CE6606768F8
:100E80003E0016404C68A40301D53E002E43354C6D
:100E90006660266832404C68E40301D52A0032437C
:100EA000304C226001330C682200DA4056D0012217
:100EB0009A40250015401442F4D04E680324344073
:100EC000013C012C98D94C6803222240032A08D007
:100ED000C4685E000322B24094438A68B240224351
:100EE000C2604C6803222240022A98D004685E0047
:100EF00003221700B740BC434F683A40B240224338
:100F000002604C68C02292021442CBD0164CA669F3
:100F100001221643A661A46922400192019A9A080F
:100F2000941CA4000E4EA75903241C40A4000F26B5
:100F3000A640B7439026F605B04282D00B4EB04291
:100F400008D00B4EB04207D00A4EB04200D176E72F
:100F5000052677E7012675E7022673E703B0F0BDA3
:100F6000000001400004014000100240000400485D
:100F700000080048000C0048426913000B401B04A5
:100F800091430B43836170477047000010B5054BD8
:100F90005B69184200D110BD024B5861FFF7F4FFA6
:100FA000F9E7C0460004014030B5036A01229343CB
:100FB0000362056A426883697324A3430C681C4377
:100FC00002239D438B682B43154DA84208D0154D35
:100FD000A84205D0144DA84202D0144DA84206D113
:100FE0000825AB431D00CB682B430425AB430C4DB8
:100FF000A84208D00B4DA84205D00B4DA84202D004
:101000000A4DA84205D10A4D2A404D6915438A6907
:101010002A43426084614A684263036230BDC0462D
:10102000002C0140004001400044014000480140C4
:10103000FFFCFFFF30B5036A194A13400362046ADC
:101040004268C3697325AB430D681D43154B1C40B3
:101050008B681B022343144CA04219D0124CA042AF
:1010600008D0124CA04205D0114CA04202D0114C25
:10107000A04207D1104C22404C69240114438A69D4
:10108000120122434260C5614A68C263036230BDF7
:101090000A4C1C40CB681B022343094C2340DDE76C
:1010A000FFFEFFFFFFFDFFFF002C0140004001405D
:1010B0000044014000480140FFCFFFFFFFF7FFFF62
:1010C000FFFBFFFF30B5036A134A13400362046A53
:1010D0004368C269114D2A400D682D021543104A1C
:1010E00014408A68120322430E4CA04208D00E4CD2
:1010F000A04205D00D4CA04202D00D4CA04204D11C
:101100000C4C1C404B699B0123434360C5614B68F9
:101110000364026230BDC046FFEFFFFFFF8CFFFF9C
:10112000FFDFFFFF002C0140004001400044014070
:1011300000480140FFBFFFFF30B5036A046A012584
:10114000AC4304628469EF35AC43120122430A24A4
:10115000A3430B438261036230BD000030B5036AD4
:101160001024A34303628469036A054D2C401203D3
:101170002243A024A343090119438261016230BDC7
:10118000FF0FFFFF8368702293430B43693A1343B9
:1011900083607047704700000368214A904206D080
:1011A0008022D205904202D01E4A904203D1702282
:1011B00093434A6813431A4A904212D08022D205C0
:1011C00090420ED0174A90420BD0174A904208D056
:1011D000164A904205D0164A904202D0154A9042D3
:1011E00003D1154A1A40CB681343802293434A69BE
:1011F000134303608B68C3620B688362084B984299
:1012000008D00A4B984205D0094B984202D0094BAE
:10121000984201D10B690363012343617047C046C3
:10122000002C01400004004000200040004001402C
:101230000044014000480140FFFCFFFF70B5041E60
:1012400026D03D23C35C002B1CD03D2502236355D3
:10125000210001C9FFF7A0FF01234622A354083A49
:10126000A3540132A3540132A3540132A3540132D6
:10127000A3540132A3540132A3540132A354635541
:10128000002070BD3C330022C25400F085FADCE738
:101290000120F6E770B5041E26D03D23C35C002B69
:1012A0001CD03D2502236355210001C9FFF774FFBF
:1012B00001234622A354083AA3540132A354013215
:1012C000A3540132A3540132A3540132A354013276
:1012D000A3540132A3546355002070BD3C33002257
:1012E000C254FFF757FFDCE70120F6E770B5036A49
:1012F000102293430362026A44688369174D2B40AE
:101300000D682D021D4320239A438B681B01134354
:10131000134A904219D0124A904208D0114A904282
:1013200005D0114A904202D0104A904207D1104A8B
:1013300014404A69920022438C69A400144344601B
:1013400085614A688263036270BD802293431E00F8
:10135000CB681B013343403A9343DCE7FF8CFFFF2C
:10136000002C014000400140004401400048014081
:10137000FFF3FFFF70B504000D003C23C35C012B9D
:1013800000D16AE03C230121C154082A50D01CD866
:10139000002A38D0042A16D100682900FFF7A6FFDA
:1013A0002268916980231B010B4393612268936932
:1013B0002B490B40936121688B692A691202134300
:1013C0008B6100201BE0080019E00C2A16D1006890
:1013D0002900FFF777FE2268D16980231B010B43A8
:1013E000D3612268D3691E490B40D3612168CB6960
:1013F0002A6912021343CB61002000E001203C2344
:101400000022E25470BD00682900FFF7CDFD22687C
:10141000936908210B4393612268936904398B43D4
:1014200093612268936929690B4393610020E6E781
:1014300000682900FFF7FEFD2268D36908210B43ED
:10144000D3612268D36904398B43D3612268D3699D
:1014500029690B43D3610020D1E70220D2E7C046BF
:10146000FFFBFFFF30B58468034D2C401B02134384
:101470000B432343836030BDFF00FFFF10B5040022
:1014800008003C23E35C012B00D177E03C230122E0
:10149000E25401330132E2542268936838490B4028
:1014A0009360016860294FD029D8402957D00CD9C2
:1014B000502922D14168C2682068FFF73DFE2068AC
:1014C0005021FFF75FFE002005E020290ED009D94A
:1014D00030290BD001203D230122E254013B0022A0
:1014E000E25410BD002901D0102904D12068FFF773
:1014F00049FE0020EFE70120EDE70120EBE7802225
:101500005201914236D08022920191420DD18168E0
:101510004268C3682068FFF7A5FF226891688023AE
:10152000DB010B4393600020D5E7702924D181684B
:101530004268C3682068FFF795FF226893687721A7
:101540000B4393600020C6E74168C2682068FFF73C
:1015500005FE20686021FFF715FE0020BBE741680B
:10156000C2682068FFF7E8FD20684021FFF70AFE07
:101570000020B0E70020AEE70120ACE70220B0E792
:101580008800FFFF10B51F23194001248C40036A17
:10159000A3430362036A8A401343036210BD000041
:1015A00010B50400002936D13E23C35C013B5A1E0E
:1015B0009341DBB2002B62D1002945D13E33022298
:1015C000E25420680122FFF7DDFF23682E4A934290
:1015D00008D02E4A934205D02D4A934202D02D4A7C
:1015E000934204D1596C802212020A435A64236840
:1015F000254A934238D08022D205934234D0264ADD
:10160000934231D0214A93422ED01A6801210A43D5
:101610001A60002034E0042908D008290DD04123A5
:10162000C35C013B5A1E9341DBB2C3E73F23C35C5B
:10163000013B5A1E9341DBB2BCE74023C35C013B34
:101640005A1E9341DBB2B5E7042905D0082907D01B
:1016500041230222E254B4E73F230222E254B0E7DE
:1016600040230222E254ACE7996807220A40062A86
:1016700007D01A6801210A431A60002000E0012007
:1016800010BD0020FCE7C046002C01400040014096
:1016900000440140004801400004004030B53C23B4
:1016A000C35C012B28D03C230122C25401330132F8
:1016B000C25403685C689D686E3294430A68224392
:1016C0005A6003680D4A934209D08022D2059342A2
:1016D00005D00B4A934202D00A4A934204D1802299
:1016E00095434A682A439A603D230122C254013B34
:1016F0000022C254002030BD0220FCE7002C014033
:10170000000400400040014082B00A4B9969012268
:101710001143996199690A400092009ADA6980211F
:1017200049050A43DA61DB690B400193019B02B072
:101730007047C0460010024010B588B00400142263
:10174000002103A800F095F82268114B9A4201D0BD
:1017500008B010BD0F4B9A69802189000A439A6135
:101760009A690A400192019A5A69802189020A43C2
:101770005A615B690B400293029B402303933D3BFC
:101780000493902003A9C005FFF732FBE0E7C046B1
:10179000002401400010024082B00268074B9A42C8
:1017A00001D002B07047064AD16902231943D161C2
:1017B000D26913400193019BF3E7C0460004004047
:1017C0000010024010B586B004001422002101A8C8
:1017D00000F04FF822680C4B9A4201D006B010BDC1
:1017E0000A4B5A698021C9020A435A615B690B405E
:1017F0000093009B0123019302220292059301A909
:101800000348FFF7F5FAE9E7000400400010024042
:1018100000040048014B18607047C04604000020D7
:101820000D488546FEF7A2FF0C480D490D4A0023DE
:1018300002E0D458C4500433C4188C42F9D30A4A85
:101840000A4C002301E013600432A242FBD300F0F3
:1018500019F8FEF75FFFFEE70020002000000020DF
:1018600010000020EC18000810000020BC00002030
:10187000FEE703008218934200D1704719700133CC
:10188000F9E7000070B500260C4C0D4D641BA41048
:10189000A64209D1002600F019F80A4C0A4D641B33
:1018A000A410A64205D170BDB300EB58984701368D
:1018B000EEE7B300EB5898470136F2E7E41800086A
:1018C000E4180008E8180008E4180008F8B5C04655
:1018D000F8BC08BC9E467047F8B5C046F8BC08BCCA
:0418E0009E46704769
:0418E400E90000080F
:0418E800C100000833
:1018EC00F401000000127A00010000000400000066
:0400000508001821B6
:00000001FF
